{
  "_format": "hh-sol-artifact-1",
  "contractName": "DDVS",
  "sourceName": "contracts/DDVS.sol",
  "abi": [
    {
      "inputs": [],
      "stateMutability": "nonpayable",
      "type": "constructor"
    },
    {
      "inputs": [
        {
          "internalType": "address",
          "name": "sender",
          "type": "address"
        },
        {
          "internalType": "uint256",
          "name": "tokenId",
          "type": "uint256"
        },
        {
          "internalType": "address",
          "name": "owner",
          "type": "address"
        }
      ],
      "name": "ERC721IncorrectOwner",
      "type": "error"
    },
    {
      "inputs": [
        {
          "internalType": "address",
          "name": "operator",
          "type": "address"
        },
        {
          "internalType": "uint256",
          "name": "tokenId",
          "type": "uint256"
        }
      ],
      "name": "ERC721InsufficientApproval",
      "type": "error"
    },
    {
      "inputs": [
        {
          "internalType": "address",
          "name": "approver",
          "type": "address"
        }
      ],
      "name": "ERC721InvalidApprover",
      "type": "error"
    },
    {
      "inputs": [
        {
          "internalType": "address",
          "name": "operator",
          "type": "address"
        }
      ],
      "name": "ERC721InvalidOperator",
      "type": "error"
    },
    {
      "inputs": [
        {
          "internalType": "address",
          "name": "owner",
          "type": "address"
        }
      ],
      "name": "ERC721InvalidOwner",
      "type": "error"
    },
    {
      "inputs": [
        {
          "internalType": "address",
          "name": "receiver",
          "type": "address"
        }
      ],
      "name": "ERC721InvalidReceiver",
      "type": "error"
    },
    {
      "inputs": [
        {
          "internalType": "address",
          "name": "sender",
          "type": "address"
        }
      ],
      "name": "ERC721InvalidSender",
      "type": "error"
    },
    {
      "inputs": [
        {
          "internalType": "uint256",
          "name": "tokenId",
          "type": "uint256"
        }
      ],
      "name": "ERC721NonexistentToken",
      "type": "error"
    },
    {
      "anonymous": false,
      "inputs": [
        {
          "indexed": true,
          "internalType": "address",
          "name": "owner",
          "type": "address"
        },
        {
          "indexed": true,
          "internalType": "address",
          "name": "approved",
          "type": "address"
        },
        {
          "indexed": true,
          "internalType": "uint256",
          "name": "tokenId",
          "type": "uint256"
        }
      ],
      "name": "Approval",
      "type": "event"
    },
    {
      "anonymous": false,
      "inputs": [
        {
          "indexed": true,
          "internalType": "address",
          "name": "owner",
          "type": "address"
        },
        {
          "indexed": true,
          "internalType": "address",
          "name": "operator",
          "type": "address"
        },
        {
          "indexed": false,
          "internalType": "bool",
          "name": "approved",
          "type": "bool"
        }
      ],
      "name": "ApprovalForAll",
      "type": "event"
    },
    {
      "anonymous": false,
      "inputs": [
        {
          "indexed": true,
          "internalType": "address",
          "name": "developer",
          "type": "address"
        },
        {
          "indexed": false,
          "internalType": "uint256",
          "name": "tokenId",
          "type": "uint256"
        }
      ],
      "name": "BadgeAwarded",
      "type": "event"
    },
    {
      "anonymous": false,
      "inputs": [
        {
          "indexed": true,
          "internalType": "address",
          "name": "from",
          "type": "address"
        },
        {
          "indexed": true,
          "internalType": "address",
          "name": "to",
          "type": "address"
        },
        {
          "indexed": true,
          "internalType": "uint256",
          "name": "tokenId",
          "type": "uint256"
        }
      ],
      "name": "Transfer",
      "type": "event"
    },
    {
      "anonymous": false,
      "inputs": [
        {
          "indexed": true,
          "internalType": "uint256",
          "name": "id",
          "type": "uint256"
        },
        {
          "indexed": true,
          "internalType": "address",
          "name": "voter",
          "type": "address"
        },
        {
          "indexed": false,
          "internalType": "uint256",
          "name": "newVoteCount",
          "type": "uint256"
        }
      ],
      "name": "Voted",
      "type": "event"
    },
    {
      "anonymous": false,
      "inputs": [
        {
          "indexed": true,
          "internalType": "uint256",
          "name": "id",
          "type": "uint256"
        },
        {
          "indexed": true,
          "internalType": "address",
          "name": "author",
          "type": "address"
        },
        {
          "indexed": false,
          "internalType": "string",
          "name": "githubLink",
          "type": "string"
        }
      ],
      "name": "WorkSubmitted",
      "type": "event"
    },
    {
      "inputs": [
        {
          "internalType": "address",
          "name": "to",
          "type": "address"
        },
        {
          "internalType": "uint256",
          "name": "tokenId",
          "type": "uint256"
        }
      ],
      "name": "approve",
      "outputs": [],
      "stateMutability": "nonpayable",
      "type": "function"
    },
    {
      "inputs": [
        {
          "internalType": "address",
          "name": "owner",
          "type": "address"
        }
      ],
      "name": "balanceOf",
      "outputs": [
        {
          "internalType": "uint256",
          "name": "",
          "type": "uint256"
        }
      ],
      "stateMutability": "view",
      "type": "function"
    },
    {
      "inputs": [],
      "name": "claimBadge",
      "outputs": [],
      "stateMutability": "nonpayable",
      "type": "function"
    },
    {
      "inputs": [
        {
          "internalType": "uint256",
          "name": "tokenId",
          "type": "uint256"
        }
      ],
      "name": "getApproved",
      "outputs": [
        {
          "internalType": "address",
          "name": "",
          "type": "address"
        }
      ],
      "stateMutability": "view",
      "type": "function"
    },
    {
      "inputs": [
        {
          "internalType": "uint256",
          "name": "",
          "type": "uint256"
        },
        {
          "internalType": "address",
          "name": "",
          "type": "address"
        }
      ],
      "name": "hasVoted",
      "outputs": [
        {
          "internalType": "bool",
          "name": "",
          "type": "bool"
        }
      ],
      "stateMutability": "view",
      "type": "function"
    },
    {
      "inputs": [
        {
          "internalType": "address",
          "name": "owner",
          "type": "address"
        },
        {
          "internalType": "address",
          "name": "operator",
          "type": "address"
        }
      ],
      "name": "isApprovedForAll",
      "outputs": [
        {
          "internalType": "bool",
          "name": "",
          "type": "bool"
        }
      ],
      "stateMutability": "view",
      "type": "function"
    },
    {
      "inputs": [],
      "name": "name",
      "outputs": [
        {
          "internalType": "string",
          "name": "",
          "type": "string"
        }
      ],
      "stateMutability": "view",
      "type": "function"
    },
    {
      "inputs": [
        {
          "internalType": "uint256",
          "name": "tokenId",
          "type": "uint256"
        }
      ],
      "name": "ownerOf",
      "outputs": [
        {
          "internalType": "address",
          "name": "",
          "type": "address"
        }
      ],
      "stateMutability": "view",
      "type": "function"
    },
    {
      "inputs": [
        {
          "internalType": "address",
          "name": "",
          "type": "address"
        }
      ],
      "name": "reputationScore",
      "outputs": [
        {
          "internalType": "uint256",
          "name": "",
          "type": "uint256"
        }
      ],
      "stateMutability": "view",
      "type": "function"
    },
    {
      "inputs": [
        {
          "internalType": "address",
          "name": "from",
          "type": "address"
        },
        {
          "internalType": "address",
          "name": "to",
          "type": "address"
        },
        {
          "internalType": "uint256",
          "name": "tokenId",
          "type": "uint256"
        }
      ],
      "name": "safeTransferFrom",
      "outputs": [],
      "stateMutability": "nonpayable",
      "type": "function"
    },
    {
      "inputs": [
        {
          "internalType": "address",
          "name": "from",
          "type": "address"
        },
        {
          "internalType": "address",
          "name": "to",
          "type": "address"
        },
        {
          "internalType": "uint256",
          "name": "tokenId",
          "type": "uint256"
        },
        {
          "internalType": "bytes",
          "name": "data",
          "type": "bytes"
        }
      ],
      "name": "safeTransferFrom",
      "outputs": [],
      "stateMutability": "nonpayable",
      "type": "function"
    },
    {
      "inputs": [
        {
          "internalType": "address",
          "name": "operator",
          "type": "address"
        },
        {
          "internalType": "bool",
          "name": "approved",
          "type": "bool"
        }
      ],
      "name": "setApprovalForAll",
      "outputs": [],
      "stateMutability": "nonpayable",
      "type": "function"
    },
    {
      "inputs": [
        {
          "internalType": "uint256",
          "name": "",
          "type": "uint256"
        }
      ],
      "name": "submissions",
      "outputs": [
        {
          "internalType": "uint256",
          "name": "id",
          "type": "uint256"
        },
        {
          "internalType": "address",
          "name": "author",
          "type": "address"
        },
        {
          "internalType": "string",
          "name": "githubLink",
          "type": "string"
        },
        {
          "internalType": "string",
          "name": "description",
          "type": "string"
        },
        {
          "internalType": "uint256",
          "name": "voteCount",
          "type": "uint256"
        },
        {
          "internalType": "bool",
          "name": "exists",
          "type": "bool"
        }
      ],
      "stateMutability": "view",
      "type": "function"
    },
    {
      "inputs": [
        {
          "internalType": "string",
          "name": "_githubLink",
          "type": "string"
        },
        {
          "internalType": "string",
          "name": "_description",
          "type": "string"
        }
      ],
      "name": "submitWork",
      "outputs": [],
      "stateMutability": "nonpayable",
      "type": "function"
    },
    {
      "inputs": [
        {
          "internalType": "bytes4",
          "name": "interfaceId",
          "type": "bytes4"
        }
      ],
      "name": "supportsInterface",
      "outputs": [
        {
          "internalType": "bool",
          "name": "",
          "type": "bool"
        }
      ],
      "stateMutability": "view",
      "type": "function"
    },
    {
      "inputs": [],
      "name": "symbol",
      "outputs": [
        {
          "internalType": "string",
          "name": "",
          "type": "string"
        }
      ],
      "stateMutability": "view",
      "type": "function"
    },
    {
      "inputs": [
        {
          "internalType": "uint256",
          "name": "tokenId",
          "type": "uint256"
        }
      ],
      "name": "tokenURI",
      "outputs": [
        {
          "internalType": "string",
          "name": "",
          "type": "string"
        }
      ],
      "stateMutability": "view",
      "type": "function"
    },
    {
      "inputs": [
        {
          "internalType": "address",
          "name": "from",
          "type": "address"
        },
        {
          "internalType": "address",
          "name": "to",
          "type": "address"
        },
        {
          "internalType": "uint256",
          "name": "tokenId",
          "type": "uint256"
        }
      ],
      "name": "transferFrom",
      "outputs": [],
      "stateMutability": "nonpayable",
      "type": "function"
    },
    {
      "inputs": [
        {
          "internalType": "uint256",
          "name": "_submissionId",
          "type": "uint256"
        }
      ],
      "name": "vote",
      "outputs": [],
      "stateMutability": "nonpayable",
      "type": "function"
    }
  ],
  "bytecode": "0x60806040523480156200001157600080fd5b506040518060400160405280601181526020017f44445653205665726966696564204465760000000000000000000000000000008152506040518060400160405280600481526020017f444456530000000000000000000000000000000000000000000000000000000081525081600090816200008f919062000324565b508060019081620000a1919062000324565b5050506200040b565b600081519050919050565b7f4e487b7100000000000000000000000000000000000000000000000000000000600052604160045260246000fd5b7f4e487b7100000000000000000000000000000000000000000000000000000000600052602260045260246000fd5b600060028204905060018216806200012c57607f821691505b602082108103620001425762000141620000e4565b5b50919050565b60008190508160005260206000209050919050565b60006020601f8301049050919050565b600082821b905092915050565b600060088302620001ac7fffffffffffffffffffffffffffffffffffffffffffffffffffffffffffffffff826200016d565b620001b886836200016d565b95508019841693508086168417925050509392505050565b6000819050919050565b6000819050919050565b600062000205620001ff620001f984620001d0565b620001da565b620001d0565b9050919050565b6000819050919050565b6200022183620001e4565b6200023962000230826200020c565b8484546200017a565b825550505050565b600090565b6200025062000241565b6200025d81848462000216565b505050565b5b8181101562000285576200027960008262000246565b60018101905062000263565b5050565b601f821115620002d4576200029e8162000148565b620002a9846200015d565b81016020851015620002b9578190505b620002d1620002c8856200015d565b83018262000262565b50505b505050565b600082821c905092915050565b6000620002f960001984600802620002d9565b1980831691505092915050565b6000620003148383620002e6565b9150826002028217905092915050565b6200032f82620000aa565b67ffffffffffffffff8111156200034b576200034a620000b5565b5b62000357825462000113565b6200036482828562000289565b600060209050601f8311600181146200039c576000841562000387578287015190505b62000393858262000306565b86555062000403565b601f198416620003ac8662000148565b60005b82811015620003d657848901518255600182019150602085019450602081019050620003af565b86831015620003f65784890151620003f2601f891682620002e6565b8355505b6001600288020188555050505b505050505050565b612cac806200041b6000396000f3fe608060405234801561001057600080fd5b50600436106101215760003560e01c806350d061cb116100ad578063a22cb46511610071578063a22cb46514610318578063ad73349e14610334578063b88d4fde14610369578063c87b56dd14610385578063e985e9c5146103b557610121565b806350d061cb1461026057806356e56942146102905780636352211e1461029a57806370a08231146102ca57806395d89b41146102fa57610121565b8063095ea7b3116100f4578063095ea7b3146101c05780630b150296146101dc57806323b872dd146101f857806342842e0e14610214578063438596321461023057610121565b80630121b93f1461012657806301ffc9a71461014257806306fdde0314610172578063081812fc14610190575b600080fd5b610140600480360381019061013b9190611e33565b6103e5565b005b61015c60048036038101906101579190611eb8565b61071c565b6040516101699190611f00565b60405180910390f35b61017a6107fe565b6040516101879190611fab565b60405180910390f35b6101aa60048036038101906101a59190611e33565b610890565b6040516101b7919061200e565b60405180910390f35b6101da60048036038101906101d59190612055565b6108ac565b005b6101f660048036038101906101f191906121ca565b6108c2565b005b610212600480360381019061020d9190612242565b610a39565b005b61022e60048036038101906102299190612242565b610b3b565b005b61024a60048036038101906102459190612295565b610b5b565b6040516102579190611f00565b60405180910390f35b61027a600480360381019061027591906122d5565b610b8a565b6040516102879190612311565b60405180910390f35b610298610ba2565b005b6102b460048036038101906102af9190611e33565b610c9f565b6040516102c1919061200e565b60405180910390f35b6102e460048036038101906102df91906122d5565b610cb1565b6040516102f19190612311565b60405180910390f35b610302610d6b565b60405161030f9190611fab565b60405180910390f35b610332600480360381019061032d9190612358565b610dfd565b005b61034e60048036038101906103499190611e33565b610e13565b60405161036096959493929190612398565b60405180910390f35b610383600480360381019061037e91906124a8565b610f8c565b005b61039f600480360381019061039a9190611e33565b610fb1565b6040516103ac9190611fab565b60405180910390f35b6103cf60048036038101906103ca919061252b565b61101a565b6040516103dc9190611f00565b60405180910390f35b6008600082815260200190815260200160002060050160009054906101000a900460ff16610448576040517f08c379a000000000000000000000000000000000000000000000000000000000815260040161043f906125b7565b60405180910390fd5b3373ffffffffffffffffffffffffffffffffffffffff166008600083815260200190815260200160002060010160009054906101000a900473ffffffffffffffffffffffffffffffffffffffff1673ffffffffffffffffffffffffffffffffffffffff16036104ec576040517f08c379a00000000000000000000000000000000000000000000000000000000081526004016104e390612623565b60405180910390fd5b600a600082815260200190815260200160002060003373ffffffffffffffffffffffffffffffffffffffff1673ffffffffffffffffffffffffffffffffffffffff16815260200190815260200160002060009054906101000a900460ff161561058a576040517f08c379a00000000000000000000000000000000000000000000000000000000081526004016105819061268f565b60405180910390fd5b60016008600083815260200190815260200160002060040160008282546105b191906126de565b925050819055506001600a600083815260200190815260200160002060003373ffffffffffffffffffffffffffffffffffffffff1673ffffffffffffffffffffffffffffffffffffffff16815260200190815260200160002060006101000a81548160ff02191690831515021790555060006008600083815260200190815260200160002060010160009054906101000a900473ffffffffffffffffffffffffffffffffffffffff169050600a600960008373ffffffffffffffffffffffffffffffffffffffff1673ffffffffffffffffffffffffffffffffffffffff16815260200190815260200160002060008282546106ac91906126de565b925050819055503373ffffffffffffffffffffffffffffffffffffffff16827f1abe610cf2bf87e57dcc1181fcf5ac0934e843d8344ab9eed6e86c799f62585e60086000868152602001908152602001600020600401546040516107109190612311565b60405180910390a35050565b60007f80ac58cd000000000000000000000000000000000000000000000000000000007bffffffffffffffffffffffffffffffffffffffffffffffffffffffff1916827bffffffffffffffffffffffffffffffffffffffffffffffffffffffff191614806107e757507f5b5e139f000000000000000000000000000000000000000000000000000000007bffffffffffffffffffffffffffffffffffffffffffffffffffffffff1916827bffffffffffffffffffffffffffffffffffffffffffffffffffffffff1916145b806107f757506107f6826110ae565b5b9050919050565b60606000805461080d90612741565b80601f016020809104026020016040519081016040528092919081815260200182805461083990612741565b80156108865780601f1061085b57610100808354040283529160200191610886565b820191906000526020600020905b81548152906001019060200180831161086957829003601f168201915b5050505050905090565b600061089b82611118565b506108a5826111a0565b9050919050565b6108be82826108b96111dd565b6111e5565b5050565b600660008154809291906108d590612772565b9190505550600060065490506040518060c001604052808281526020013373ffffffffffffffffffffffffffffffffffffffff1681526020018481526020018381526020016000815260200160011515815250600860008381526020019081526020016000206000820151816000015560208201518160010160006101000a81548173ffffffffffffffffffffffffffffffffffffffff021916908373ffffffffffffffffffffffffffffffffffffffff16021790555060408201518160020190816109a19190612966565b5060608201518160030190816109b79190612966565b506080820151816004015560a08201518160050160006101000a81548160ff0219169083151502179055509050503373ffffffffffffffffffffffffffffffffffffffff16817fd5d9bc882dc95f198786a74e52a0b87e49a07c80921b74821ba374339e394d3085604051610a2c9190611fab565b60405180910390a3505050565b600073ffffffffffffffffffffffffffffffffffffffff168273ffffffffffffffffffffffffffffffffffffffff1603610aab5760006040517f64a0ae92000000000000000000000000000000000000000000000000000000008152600401610aa2919061200e565b60405180910390fd5b6000610abf8383610aba6111dd565b6111f7565b90508373ffffffffffffffffffffffffffffffffffffffff168173ffffffffffffffffffffffffffffffffffffffff1614610b35578382826040517f64283d7b000000000000000000000000000000000000000000000000000000008152600401610b2c93929190612a38565b60405180910390fd5b50505050565b610b5683838360405180602001604052806000815250610f8c565b505050565b600a6020528160005260406000206020528060005260406000206000915091509054906101000a900460ff1681565b60096020528060005260406000206000915090505481565b6032600960003373ffffffffffffffffffffffffffffffffffffffff1673ffffffffffffffffffffffffffffffffffffffff168152602001908152602001600020541015610c25576040517f08c379a0000000000000000000000000000000000000000000000000000000008152600401610c1c90612abb565b60405180910390fd5b60076000815480929190610c3890612772565b919050555060006007549050610c4e3382611411565b3373ffffffffffffffffffffffffffffffffffffffff167f1538e5a8b6d7b9193ea22abf96eb33aa999b6bc1d9728157028f859e32dc2dbb82604051610c949190612311565b60405180910390a250565b6000610caa82611118565b9050919050565b60008073ffffffffffffffffffffffffffffffffffffffff168273ffffffffffffffffffffffffffffffffffffffff1603610d245760006040517f89c62b64000000000000000000000000000000000000000000000000000000008152600401610d1b919061200e565b60405180910390fd5b600360008373ffffffffffffffffffffffffffffffffffffffff1673ffffffffffffffffffffffffffffffffffffffff168152602001908152602001600020549050919050565b606060018054610d7a90612741565b80601f0160208091040260200160405190810160405280929190818152602001828054610da690612741565b8015610df35780601f10610dc857610100808354040283529160200191610df3565b820191906000526020600020905b815481529060010190602001808311610dd657829003601f168201915b5050505050905090565b610e0f610e086111dd565b838361150a565b5050565b60086020528060005260406000206000915090508060000154908060010160009054906101000a900473ffffffffffffffffffffffffffffffffffffffff1690806002018054610e6290612741565b80601f0160208091040260200160405190810160405280929190818152602001828054610e8e90612741565b8015610edb5780601f10610eb057610100808354040283529160200191610edb565b820191906000526020600020905b815481529060010190602001808311610ebe57829003601f168201915b505050505090806003018054610ef090612741565b80601f0160208091040260200160405190810160405280929190818152602001828054610f1c90612741565b8015610f695780601f10610f3e57610100808354040283529160200191610f69565b820191906000526020600020905b815481529060010190602001808311610f4c57829003601f168201915b5050505050908060040154908060050160009054906101000a900460ff16905086565b610f97848484610a39565b610fab610fa26111dd565b85858585611679565b50505050565b6060610fbc82611118565b506000610fc761182a565b90506000815111610fe75760405180602001604052806000815250611012565b80610ff184611841565b604051602001611002929190612b17565b6040516020818303038152906040525b915050919050565b6000600560008473ffffffffffffffffffffffffffffffffffffffff1673ffffffffffffffffffffffffffffffffffffffff16815260200190815260200160002060008373ffffffffffffffffffffffffffffffffffffffff1673ffffffffffffffffffffffffffffffffffffffff16815260200190815260200160002060009054906101000a900460ff16905092915050565b60007f01ffc9a7000000000000000000000000000000000000000000000000000000007bffffffffffffffffffffffffffffffffffffffffffffffffffffffff1916827bffffffffffffffffffffffffffffffffffffffffffffffffffffffff1916149050919050565b6000806111248361190f565b9050600073ffffffffffffffffffffffffffffffffffffffff168173ffffffffffffffffffffffffffffffffffffffff160361119757826040517f7e27328900000000000000000000000000000000000000000000000000000000815260040161118e9190612311565b60405180910390fd5b80915050919050565b60006004600083815260200190815260200160002060009054906101000a900473ffffffffffffffffffffffffffffffffffffffff169050919050565b600033905090565b6111f2838383600161194c565b505050565b6000806112038461190f565b9050600073ffffffffffffffffffffffffffffffffffffffff168373ffffffffffffffffffffffffffffffffffffffff161461124557611244818486611b11565b5b600073ffffffffffffffffffffffffffffffffffffffff168173ffffffffffffffffffffffffffffffffffffffff16146112d65761128760008560008061194c565b6001600360008373ffffffffffffffffffffffffffffffffffffffff1673ffffffffffffffffffffffffffffffffffffffff168152602001908152602001600020600082825403925050819055505b600073ffffffffffffffffffffffffffffffffffffffff168573ffffffffffffffffffffffffffffffffffffffff1614611359576001600360008773ffffffffffffffffffffffffffffffffffffffff1673ffffffffffffffffffffffffffffffffffffffff168152602001908152602001600020600082825401925050819055505b846002600086815260200190815260200160002060006101000a81548173ffffffffffffffffffffffffffffffffffffffff021916908373ffffffffffffffffffffffffffffffffffffffff160217905550838573ffffffffffffffffffffffffffffffffffffffff168273ffffffffffffffffffffffffffffffffffffffff167fddf252ad1be2c89b69c2b068fc378daa952ba7f163c4a11628f55a4df523b3ef60405160405180910390a4809150509392505050565b600073ffffffffffffffffffffffffffffffffffffffff168273ffffffffffffffffffffffffffffffffffffffff16036114835760006040517f64a0ae9200000000000000000000000000000000000000000000000000000000815260040161147a919061200e565b60405180910390fd5b6000611491838360006111f7565b9050600073ffffffffffffffffffffffffffffffffffffffff168173ffffffffffffffffffffffffffffffffffffffff16146115055760006040517f73c6ac6e0000000000000000000000000000000000000000000000000000000081526004016114fc919061200e565b60405180910390fd5b505050565b600073ffffffffffffffffffffffffffffffffffffffff168273ffffffffffffffffffffffffffffffffffffffff160361157b57816040517f5b08ba18000000000000000000000000000000000000000000000000000000008152600401611572919061200e565b60405180910390fd5b80600560008573ffffffffffffffffffffffffffffffffffffffff1673ffffffffffffffffffffffffffffffffffffffff16815260200190815260200160002060008473ffffffffffffffffffffffffffffffffffffffff1673ffffffffffffffffffffffffffffffffffffffff16815260200190815260200160002060006101000a81548160ff0219169083151502179055508173ffffffffffffffffffffffffffffffffffffffff168373ffffffffffffffffffffffffffffffffffffffff167f17307eab39ab6107e8899845ad3d59bd9653f200f220920489ca2b5937696c318360405161166c9190611f00565b60405180910390a3505050565b60008373ffffffffffffffffffffffffffffffffffffffff163b1115611823578273ffffffffffffffffffffffffffffffffffffffff1663150b7a02868685856040518563ffffffff1660e01b81526004016116d89493929190612b90565b6020604051808303816000875af192505050801561171457506040513d601f19601f820116820180604052508101906117119190612bf1565b60015b611798573d8060008114611744576040519150601f19603f3d011682016040523d82523d6000602084013e611749565b606091505b50600081510361179057836040517f64a0ae92000000000000000000000000000000000000000000000000000000008152600401611787919061200e565b60405180910390fd5b805160208201fd5b63150b7a0260e01b7bffffffffffffffffffffffffffffffffffffffffffffffffffffffff1916817bffffffffffffffffffffffffffffffffffffffffffffffffffffffff19161461182157836040517f64a0ae92000000000000000000000000000000000000000000000000000000008152600401611818919061200e565b60405180910390fd5b505b5050505050565b606060405180602001604052806000815250905090565b60606000600161185084611bd5565b01905060008167ffffffffffffffff81111561186f5761186e61209f565b5b6040519080825280601f01601f1916602001820160405280156118a15781602001600182028036833780820191505090505b509050600082602083010190505b600115611904578080600190039150507f3031323334353637383961626364656600000000000000000000000000000000600a86061a8153600a85816118f8576118f7612c1e565b5b049450600085036118af575b819350505050919050565b60006002600083815260200190815260200160002060009054906101000a900473ffffffffffffffffffffffffffffffffffffffff169050919050565b80806119855750600073ffffffffffffffffffffffffffffffffffffffff168273ffffffffffffffffffffffffffffffffffffffff1614155b15611ab957600061199584611118565b9050600073ffffffffffffffffffffffffffffffffffffffff168373ffffffffffffffffffffffffffffffffffffffff1614158015611a0057508273ffffffffffffffffffffffffffffffffffffffff168173ffffffffffffffffffffffffffffffffffffffff1614155b8015611a135750611a11818461101a565b155b15611a5557826040517fa9fbf51f000000000000000000000000000000000000000000000000000000008152600401611a4c919061200e565b60405180910390fd5b8115611ab757838573ffffffffffffffffffffffffffffffffffffffff168273ffffffffffffffffffffffffffffffffffffffff167f8c5be1e5ebec7d5bd14f71427d1e84f3dd0314c0f7b2291e5b200ac8c7c3b92560405160405180910390a45b505b836004600085815260200190815260200160002060006101000a81548173ffffffffffffffffffffffffffffffffffffffff021916908373ffffffffffffffffffffffffffffffffffffffff16021790555050505050565b611b1c838383611d28565b611bd057600073ffffffffffffffffffffffffffffffffffffffff168373ffffffffffffffffffffffffffffffffffffffff1603611b9157806040517f7e273289000000000000000000000000000000000000000000000000000000008152600401611b889190612311565b60405180910390fd5b81816040517f177e802f000000000000000000000000000000000000000000000000000000008152600401611bc7929190612c4d565b60405180910390fd5b505050565b600080600090507a184f03e93ff9f4daa797ed6e38ed64bf6a1f0100000000000000008310611c33577a184f03e93ff9f4daa797ed6e38ed64bf6a1f0100000000000000008381611c2957611c28612c1e565b5b0492506040810190505b6d04ee2d6d415b85acef81000000008310611c70576d04ee2d6d415b85acef81000000008381611c6657611c65612c1e565b5b0492506020810190505b662386f26fc100008310611c9f57662386f26fc100008381611c9557611c94612c1e565b5b0492506010810190505b6305f5e1008310611cc8576305f5e1008381611cbe57611cbd612c1e565b5b0492506008810190505b6127108310611ced576127108381611ce357611ce2612c1e565b5b0492506004810190505b60648310611d105760648381611d0657611d05612c1e565b5b0492506002810190505b600a8310611d1f576001810190505b80915050919050565b60008073ffffffffffffffffffffffffffffffffffffffff168373ffffffffffffffffffffffffffffffffffffffff1614158015611de057508273ffffffffffffffffffffffffffffffffffffffff168473ffffffffffffffffffffffffffffffffffffffff161480611da15750611da0848461101a565b5b80611ddf57508273ffffffffffffffffffffffffffffffffffffffff16611dc7836111a0565b73ffffffffffffffffffffffffffffffffffffffff16145b5b90509392505050565b6000604051905090565b600080fd5b600080fd5b6000819050919050565b611e1081611dfd565b8114611e1b57600080fd5b50565b600081359050611e2d81611e07565b92915050565b600060208284031215611e4957611e48611df3565b5b6000611e5784828501611e1e565b91505092915050565b60007fffffffff0000000000000000000000000000000000000000000000000000000082169050919050565b611e9581611e60565b8114611ea057600080fd5b50565b600081359050611eb281611e8c565b92915050565b600060208284031215611ece57611ecd611df3565b5b6000611edc84828501611ea3565b91505092915050565b60008115159050919050565b611efa81611ee5565b82525050565b6000602082019050611f156000830184611ef1565b92915050565b600081519050919050565b600082825260208201905092915050565b60005b83811015611f55578082015181840152602081019050611f3a565b60008484015250505050565b6000601f19601f8301169050919050565b6000611f7d82611f1b565b611f878185611f26565b9350611f97818560208601611f37565b611fa081611f61565b840191505092915050565b60006020820190508181036000830152611fc58184611f72565b905092915050565b600073ffffffffffffffffffffffffffffffffffffffff82169050919050565b6000611ff882611fcd565b9050919050565b61200881611fed565b82525050565b60006020820190506120236000830184611fff565b92915050565b61203281611fed565b811461203d57600080fd5b50565b60008135905061204f81612029565b92915050565b6000806040838503121561206c5761206b611df3565b5b600061207a85828601612040565b925050602061208b85828601611e1e565b9150509250929050565b600080fd5b600080fd5b7f4e487b7100000000000000000000000000000000000000000000000000000000600052604160045260246000fd5b6120d782611f61565b810181811067ffffffffffffffff821117156120f6576120f561209f565b5b80604052505050565b6000612109611de9565b905061211582826120ce565b919050565b600067ffffffffffffffff8211156121355761213461209f565b5b61213e82611f61565b9050602081019050919050565b82818337600083830152505050565b600061216d6121688461211a565b6120ff565b9050828152602081018484840111156121895761218861209a565b5b61219484828561214b565b509392505050565b600082601f8301126121b1576121b0612095565b5b81356121c184826020860161215a565b91505092915050565b600080604083850312156121e1576121e0611df3565b5b600083013567ffffffffffffffff8111156121ff576121fe611df8565b5b61220b8582860161219c565b925050602083013567ffffffffffffffff81111561222c5761222b611df8565b5b6122388582860161219c565b9150509250929050565b60008060006060848603121561225b5761225a611df3565b5b600061226986828701612040565b935050602061227a86828701612040565b925050604061228b86828701611e1e565b9150509250925092565b600080604083850312156122ac576122ab611df3565b5b60006122ba85828601611e1e565b92505060206122cb85828601612040565b9150509250929050565b6000602082840312156122eb576122ea611df3565b5b60006122f984828501612040565b91505092915050565b61230b81611dfd565b82525050565b60006020820190506123266000830184612302565b92915050565b61233581611ee5565b811461234057600080fd5b50565b6000813590506123528161232c565b92915050565b6000806040838503121561236f5761236e611df3565b5b600061237d85828601612040565b925050602061238e85828601612343565b9150509250929050565b600060c0820190506123ad6000830189612302565b6123ba6020830188611fff565b81810360408301526123cc8187611f72565b905081810360608301526123e08186611f72565b90506123ef6080830185612302565b6123fc60a0830184611ef1565b979650505050505050565b600067ffffffffffffffff8211156124225761242161209f565b5b61242b82611f61565b9050602081019050919050565b600061244b61244684612407565b6120ff565b9050828152602081018484840111156124675761246661209a565b5b61247284828561214b565b509392505050565b600082601f83011261248f5761248e612095565b5b813561249f848260208601612438565b91505092915050565b600080600080608085870312156124c2576124c1611df3565b5b60006124d087828801612040565b94505060206124e187828801612040565b93505060406124f287828801611e1e565b925050606085013567ffffffffffffffff81111561251357612512611df8565b5b61251f8782880161247a565b91505092959194509250565b6000806040838503121561254257612541611df3565b5b600061255085828601612040565b925050602061256185828601612040565b9150509250929050565b7f5375626d697373696f6e20646f6573206e6f7420657869737400000000000000600082015250565b60006125a1601983611f26565b91506125ac8261256b565b602082019050919050565b600060208201905081810360008301526125d081612594565b9050919050565b7f43616e6e6f7420766f746520666f7220796f757273656c660000000000000000600082015250565b600061260d601883611f26565b9150612618826125d7565b602082019050919050565b6000602082019050818103600083015261263c81612600565b9050919050565b7f416c726561647920766f746564206f6e20746869730000000000000000000000600082015250565b6000612679601583611f26565b915061268482612643565b602082019050919050565b600060208201905081810360008301526126a88161266c565b9050919050565b7f4e487b7100000000000000000000000000000000000000000000000000000000600052601160045260246000fd5b60006126e982611dfd565b91506126f483611dfd565b925082820190508082111561270c5761270b6126af565b5b92915050565b7f4e487b7100000000000000000000000000000000000000000000000000000000600052602260045260246000fd5b6000600282049050600182168061275957607f821691505b60208210810361276c5761276b612712565b5b50919050565b600061277d82611dfd565b91507fffffffffffffffffffffffffffffffffffffffffffffffffffffffffffffffff82036127af576127ae6126af565b5b600182019050919050565b60008190508160005260206000209050919050565b60006020601f8301049050919050565b600082821b905092915050565b60006008830261281c7fffffffffffffffffffffffffffffffffffffffffffffffffffffffffffffffff826127df565b61282686836127df565b95508019841693508086168417925050509392505050565b6000819050919050565b600061286361285e61285984611dfd565b61283e565b611dfd565b9050919050565b6000819050919050565b61287d83612848565b6128916128898261286a565b8484546127ec565b825550505050565b600090565b6128a6612899565b6128b1818484612874565b505050565b5b818110156128d5576128ca60008261289e565b6001810190506128b7565b5050565b601f82111561291a576128eb816127ba565b6128f4846127cf565b81016020851015612903578190505b61291761290f856127cf565b8301826128b6565b50505b505050565b600082821c905092915050565b600061293d6000198460080261291f565b1980831691505092915050565b6000612956838361292c565b9150826002028217905092915050565b61296f82611f1b565b67ffffffffffffffff8111156129885761298761209f565b5b6129928254612741565b61299d8282856128d9565b600060209050601f8311600181146129d057600084156129be578287015190505b6129c8858261294a565b865550612a30565b601f1984166129de866127ba565b60005b82811015612a06578489015182556001820191506020850194506020810190506129e1565b86831015612a235784890151612a1f601f89168261292c565b8355505b6001600288020188555050505b505050505050565b6000606082019050612a4d6000830186611fff565b612a5a6020830185612302565b612a676040830184611fff565b949350505050565b7f4e6f7420656e6f7567682072657075746174696f6e20284e6565642035302900600082015250565b6000612aa5601f83611f26565b9150612ab082612a6f565b602082019050919050565b60006020820190508181036000830152612ad481612a98565b9050919050565b600081905092915050565b6000612af182611f1b565b612afb8185612adb565b9350612b0b818560208601611f37565b80840191505092915050565b6000612b238285612ae6565b9150612b2f8284612ae6565b91508190509392505050565b600081519050919050565b600082825260208201905092915050565b6000612b6282612b3b565b612b6c8185612b46565b9350612b7c818560208601611f37565b612b8581611f61565b840191505092915050565b6000608082019050612ba56000830187611fff565b612bb26020830186611fff565b612bbf6040830185612302565b8181036060830152612bd18184612b57565b905095945050505050565b600081519050612beb81611e8c565b92915050565b600060208284031215612c0757612c06611df3565b5b6000612c1584828501612bdc565b91505092915050565b7f4e487b7100000000000000000000000000000000000000000000000000000000600052601260045260246000fd5b6000604082019050612c626000830185611fff565b612c6f6020830184612302565b939250505056fea26469706673582212207324b38a6f7d9b65af23e28af127bf7c0648561388b7a96e7cdebbfade604ccb64736f6c63430008140033",
  "linkReferences": {},
  "deployedLinkReferences": {}
}