{
  "_format": "hh-sol-artifact-1",
  "contractName": "DDVSAttestation",
  "sourceName": "contracts/DDVSAttestation.sol",
  "abi": [
    {
      "inputs": [
        {
          "internalType": "uint256",
          "name": "",
          "type": "uint256"
        }
      ],
      "name": "attestations",
      "outputs": [
        {
          "internalType": "uint256",
          "name": "projectId",
          "type": "uint256"
        },
        {
          "internalType": "address",
          "name": "verifier",
          "type": "address"
        },
        {
          "internalType": "bool",
          "name": "approved",
          "type": "bool"
        },
        {
          "internalType": "string",
          "name": "comments",
          "type": "string"
        }
      ],
      "stateMutability": "view",
      "type": "function"
    },
    {
      "inputs": [
        {
          "internalType": "uint256",
          "name": "_projectId",
          "type": "uint256"
        },
        {
          "internalType": "bool",
          "name": "_approved",
          "type": "bool"
        },
        {
          "internalType": "string",
          "name": "_comments",
          "type": "string"
        }
      ],
      "name": "submitAttestation",
      "outputs": [],
      "stateMutability": "nonpayable",
      "type": "function"
    }
  ],
  "bytecode": "0x608060405234801561001057600080fd5b506108eb806100206000396000f3fe608060405234801561001057600080fd5b50600436106100365760003560e01c806301daf26b1461003b57806380f1f1ce1461006e575b600080fd5b61005560048036038101906100509190610293565b61008a565b60405161006594939291906103bb565b60405180910390f35b61008860048036038101906100839190610568565b61016f565b005b60006020528060005260406000206000915090508060000154908060010160009054906101000a900473ffffffffffffffffffffffffffffffffffffffff16908060010160149054906101000a900460ff16908060020180546100ec90610606565b80601f016020809104026020016040519081016040528092919081815260200182805461011890610606565b80156101655780601f1061013a57610100808354040283529160200191610165565b820191906000526020600020905b81548152906001019060200180831161014857829003601f168201915b5050505050905084565b60405180608001604052808481526020013373ffffffffffffffffffffffffffffffffffffffff1681526020018315158152602001828152506000808581526020019081526020016000206000820151816000015560208201518160010160006101000a81548173ffffffffffffffffffffffffffffffffffffffff021916908373ffffffffffffffffffffffffffffffffffffffff16021790555060408201518160010160146101000a81548160ff021916908315150217905550606082015181600201908161024091906107e3565b50905050505050565b6000604051905090565b600080fd5b600080fd5b6000819050919050565b6102708161025d565b811461027b57600080fd5b50565b60008135905061028d81610267565b92915050565b6000602082840312156102a9576102a8610253565b5b60006102b78482850161027e565b91505092915050565b6102c98161025d565b82525050565b600073ffffffffffffffffffffffffffffffffffffffff82169050919050565b60006102fa826102cf565b9050919050565b61030a816102ef565b82525050565b60008115159050919050565b61032581610310565b82525050565b600081519050919050565b600082825260208201905092915050565b60005b8381101561036557808201518184015260208101905061034a565b60008484015250505050565b6000601f19601f8301169050919050565b600061038d8261032b565b6103978185610336565b93506103a7818560208601610347565b6103b081610371565b840191505092915050565b60006080820190506103d060008301876102c0565b6103dd6020830186610301565b6103ea604083018561031c565b81810360608301526103fc8184610382565b905095945050505050565b61041081610310565b811461041b57600080fd5b50565b60008135905061042d81610407565b92915050565b600080fd5b600080fd5b7f4e487b7100000000000000000000000000000000000000000000000000000000600052604160045260246000fd5b61047582610371565b810181811067ffffffffffffffff821117156104945761049361043d565b5b80604052505050565b60006104a7610249565b90506104b3828261046c565b919050565b600067ffffffffffffffff8211156104d3576104d261043d565b5b6104dc82610371565b9050602081019050919050565b82818337600083830152505050565b600061050b610506846104b8565b61049d565b90508281526020810184848401111561052757610526610438565b5b6105328482856104e9565b509392505050565b600082601f83011261054f5761054e610433565b5b813561055f8482602086016104f8565b91505092915050565b60008060006060848603121561058157610580610253565b5b600061058f8682870161027e565b93505060206105a08682870161041e565b925050604084013567ffffffffffffffff8111156105c1576105c0610258565b5b6105cd8682870161053a565b9150509250925092565b7f4e487b7100000000000000000000000000000000000000000000000000000000600052602260045260246000fd5b6000600282049050600182168061061e57607f821691505b602082108103610631576106306105d7565b5b50919050565b60008190508160005260206000209050919050565b60006020601f8301049050919050565b600082821b905092915050565b6000600883026106997fffffffffffffffffffffffffffffffffffffffffffffffffffffffffffffffff8261065c565b6106a3868361065c565b95508019841693508086168417925050509392505050565b6000819050919050565b60006106e06106db6106d68461025d565b6106bb565b61025d565b9050919050565b6000819050919050565b6106fa836106c5565b61070e610706826106e7565b848454610669565b825550505050565b600090565b610723610716565b61072e8184846106f1565b505050565b5b818110156107525761074760008261071b565b600181019050610734565b5050565b601f8211156107975761076881610637565b6107718461064c565b81016020851015610780578190505b61079461078c8561064c565b830182610733565b50505b505050565b600082821c905092915050565b60006107ba6000198460080261079c565b1980831691505092915050565b60006107d383836107a9565b9150826002028217905092915050565b6107ec8261032b565b67ffffffffffffffff8111156108055761080461043d565b5b61080f8254610606565b61081a828285610756565b600060209050601f83116001811461084d576000841561083b578287015190505b61084585826107c7565b8655506108ad565b601f19841661085b86610637565b60005b828110156108835784890151825560018201915060208501945060208101905061085e565b868310156108a0578489015161089c601f8916826107a9565b8355505b6001600288020188555050505b50505050505056fea264697066735822122015f570494c666adb67ec289361cc0b98ccf865d590812cf337d531104f93b56564736f6c63430008140033",
  "linkReferences": {},
  "deployedLinkReferences": {}
}