{
  "_format": "hh-sol-artifact-1",
  "contractName": "DDVSSubmissions",
  "sourceName": "contracts/DDVSSubmission.sol",
  "abi": [
    {
      "anonymous": false,
      "inputs": [
        {
          "indexed": true,
          "internalType": "uint256",
          "name": "dbId",
          "type": "uint256"
        },
        {
          "indexed": true,
          "internalType": "address",
          "name": "author",
          "type": "address"
        },
        {
          "indexed": false,
          "internalType": "string",
          "name": "repoUrl",
          "type": "string"
        }
      ],
      "name": "ProjectRegistered",
      "type": "event"
    },
    {
      "inputs": [
        {
          "internalType": "uint256",
          "name": "",
          "type": "uint256"
        }
      ],
      "name": "projects",
      "outputs": [
        {
          "internalType": "uint256",
          "name": "dbId",
          "type": "uint256"
        },
        {
          "internalType": "address",
          "name": "author",
          "type": "address"
        },
        {
          "internalType": "string",
          "name": "repoUrl",
          "type": "string"
        },
        {
          "internalType": "uint256",
          "name": "timestamp",
          "type": "uint256"
        }
      ],
      "stateMutability": "view",
      "type": "function"
    },
    {
      "inputs": [
        {
          "internalType": "uint256",
          "name": "_dbId",
          "type": "uint256"
        },
        {
          "internalType": "string",
          "name": "_repoUrl",
          "type": "string"
        }
      ],
      "name": "registerProject",
      "outputs": [],
      "stateMutability": "nonpayable",
      "type": "function"
    }
  ],
  "bytecode": "0x608060405234801561001057600080fd5b506108dc806100206000396000f3fe608060405234801561001057600080fd5b50600436106100365760003560e01c8063107046bd1461003b578063cf4d832c1461006e575b600080fd5b610055600480360381019061005091906102bc565b61008a565b60405161006594939291906103c9565b60405180910390f35b6100886004803603810190610083919061054a565b610162565b005b60006020528060005260406000206000915090508060000154908060010160009054906101000a900473ffffffffffffffffffffffffffffffffffffffff16908060020180546100d9906105d5565b80601f0160208091040260200160405190810160405280929190818152602001828054610105906105d5565b80156101525780601f1061012757610100808354040283529160200191610152565b820191906000526020600020905b81548152906001019060200180831161013557829003601f168201915b5050505050908060030154905084565b60405180608001604052808381526020013373ffffffffffffffffffffffffffffffffffffffff168152602001828152602001428152506000808481526020019081526020016000206000820151816000015560208201518160010160006101000a81548173ffffffffffffffffffffffffffffffffffffffff021916908373ffffffffffffffffffffffffffffffffffffffff160217905550604082015181600201908161021191906107b2565b50606082015181600301559050503373ffffffffffffffffffffffffffffffffffffffff16827f1fb4423aed62bba3e66f7c81a4af273642c7e8c57d7b111ae2b1aca9887869ba836040516102669190610884565b60405180910390a35050565b6000604051905090565b600080fd5b600080fd5b6000819050919050565b61029981610286565b81146102a457600080fd5b50565b6000813590506102b681610290565b92915050565b6000602082840312156102d2576102d161027c565b5b60006102e0848285016102a7565b91505092915050565b6102f281610286565b82525050565b600073ffffffffffffffffffffffffffffffffffffffff82169050919050565b6000610323826102f8565b9050919050565b61033381610318565b82525050565b600081519050919050565b600082825260208201905092915050565b60005b83811015610373578082015181840152602081019050610358565b60008484015250505050565b6000601f19601f8301169050919050565b600061039b82610339565b6103a58185610344565b93506103b5818560208601610355565b6103be8161037f565b840191505092915050565b60006080820190506103de60008301876102e9565b6103eb602083018661032a565b81810360408301526103fd8185610390565b905061040c60608301846102e9565b95945050505050565b600080fd5b600080fd5b7f4e487b7100000000000000000000000000000000000000000000000000000000600052604160045260246000fd5b6104578261037f565b810181811067ffffffffffffffff821117156104765761047561041f565b5b80604052505050565b6000610489610272565b9050610495828261044e565b919050565b600067ffffffffffffffff8211156104b5576104b461041f565b5b6104be8261037f565b9050602081019050919050565b82818337600083830152505050565b60006104ed6104e88461049a565b61047f565b9050828152602081018484840111156105095761050861041a565b5b6105148482856104cb565b509392505050565b600082601f83011261053157610530610415565b5b81356105418482602086016104da565b91505092915050565b600080604083850312156105615761056061027c565b5b600061056f858286016102a7565b925050602083013567ffffffffffffffff8111156105905761058f610281565b5b61059c8582860161051c565b9150509250929050565b7f4e487b7100000000000000000000000000000000000000000000000000000000600052602260045260246000fd5b600060028204905060018216806105ed57607f821691505b602082108103610600576105ff6105a6565b5b50919050565b60008190508160005260206000209050919050565b60006020601f8301049050919050565b600082821b905092915050565b6000600883026106687fffffffffffffffffffffffffffffffffffffffffffffffffffffffffffffffff8261062b565b610672868361062b565b95508019841693508086168417925050509392505050565b6000819050919050565b60006106af6106aa6106a584610286565b61068a565b610286565b9050919050565b6000819050919050565b6106c983610694565b6106dd6106d5826106b6565b848454610638565b825550505050565b600090565b6106f26106e5565b6106fd8184846106c0565b505050565b5b81811015610721576107166000826106ea565b600181019050610703565b5050565b601f8211156107665761073781610606565b6107408461061b565b8101602085101561074f578190505b61076361075b8561061b565b830182610702565b50505b505050565b600082821c905092915050565b60006107896000198460080261076b565b1980831691505092915050565b60006107a28383610778565b9150826002028217905092915050565b6107bb82610339565b67ffffffffffffffff8111156107d4576107d361041f565b5b6107de82546105d5565b6107e9828285610725565b600060209050601f83116001811461081c576000841561080a578287015190505b6108148582610796565b86555061087c565b601f19841661082a86610606565b60005b828110156108525784890151825560018201915060208501945060208101905061082d565b8683101561086f578489015161086b601f891682610778565b8355505b6001600288020188555050505b505050505050565b6000602082019050818103600083015261089e8184610390565b90509291505056fea26469706673582212207410844b8130856fbfd03919d878983d51ec5d573bf4278b9fbe4f72009eabf164736f6c63430008140033",
  "linkReferences": {},
  "deployedLinkReferences": {}
}