{
  "_format": "hh-sol-artifact-1",
  "contractName": "DDVSSubmissions",
  "sourceName": "contracts/DDVSSubmission.sol",
  "abi": [
    {
      "anonymous": false,
      "inputs": [
        {
          "indexed": true,
          "internalType": "uint256",
          "name": "dbId",
          "type": "uint256"
        },
        {
          "indexed": true,
          "internalType": "address",
          "name": "author",
          "type": "address"
        },
        {
          "indexed": false,
          "internalType": "string",
          "name": "title",
          "type": "string"
        },
        {
          "indexed": false,
          "internalType": "string",
          "name": "category",
          "type": "string"
        },
        {
          "indexed": false,
          "internalType": "string",
          "name": "repoUrl",
          "type": "string"
        },
        {
          "indexed": false,
          "internalType": "string",
          "name": "description",
          "type": "string"
        }
      ],
      "name": "ProjectRegistered",
      "type": "event"
    },
    {
      "inputs": [
        {
          "internalType": "uint256",
          "name": "",
          "type": "uint256"
        }
      ],
      "name": "projects",
      "outputs": [
        {
          "internalType": "uint256",
          "name": "dbId",
          "type": "uint256"
        },
        {
          "internalType": "address",
          "name": "author",
          "type": "address"
        },
        {
          "internalType": "string",
          "name": "title",
          "type": "string"
        },
        {
          "internalType": "string",
          "name": "category",
          "type": "string"
        },
        {
          "internalType": "string",
          "name": "repoUrl",
          "type": "string"
        },
        {
          "internalType": "uint256",
          "name": "timestamp",
          "type": "uint256"
        }
      ],
      "stateMutability": "view",
      "type": "function"
    },
    {
      "inputs": [
        {
          "internalType": "uint256",
          "name": "_dbId",
          "type": "uint256"
        },
        {
          "internalType": "string",
          "name": "_title",
          "type": "string"
        },
        {
          "internalType": "string",
          "name": "_category",
          "type": "string"
        },
        {
          "internalType": "string",
          "name": "_repoUrl",
          "type": "string"
        },
        {
          "internalType": "string",
          "name": "_description",
          "type": "string"
        }
      ],
      "name": "registerProject",
      "outputs": [],
      "stateMutability": "nonpayable",
      "type": "function"
    }
  ],
  "bytecode": "0x608060405234801561001057600080fd5b50610b33806100206000396000f3fe608060405234801561001057600080fd5b50600436106100365760003560e01c8063107046bd1461003b578063fd8b55ae14610070575b600080fd5b6100556004803603810190610050919061041b565b61008c565b60405161006796959493929190610528565b60405180910390f35b61008a600480360381019061008591906106d3565b610280565b005b60006020528060005260406000206000915090508060000154908060010160009054906101000a900473ffffffffffffffffffffffffffffffffffffffff16908060020180546100db906107ed565b80601f0160208091040260200160405190810160405280929190818152602001828054610107906107ed565b80156101545780601f1061012957610100808354040283529160200191610154565b820191906000526020600020905b81548152906001019060200180831161013757829003601f168201915b505050505090806003018054610169906107ed565b80601f0160208091040260200160405190810160405280929190818152602001828054610195906107ed565b80156101e25780601f106101b7576101008083540402835291602001916101e2565b820191906000526020600020905b8154815290600101906020018083116101c557829003601f168201915b5050505050908060040180546101f7906107ed565b80601f0160208091040260200160405190810160405280929190818152602001828054610223906107ed565b80156102705780601f1061024557610100808354040283529160200191610270565b820191906000526020600020905b81548152906001019060200180831161025357829003601f168201915b5050505050908060050154905086565b6040518060c001604052808681526020013373ffffffffffffffffffffffffffffffffffffffff168152602001858152602001848152602001838152602001428152506000808781526020019081526020016000206000820151816000015560208201518160010160006101000a81548173ffffffffffffffffffffffffffffffffffffffff021916908373ffffffffffffffffffffffffffffffffffffffff160217905550604082015181600201908161033b91906109ca565b50606082015181600301908161035191906109ca565b50608082015181600401908161036791906109ca565b5060a082015181600501559050503373ffffffffffffffffffffffffffffffffffffffff16857f195857f29a71fd0a531258576f7096bb5cee93914681437dceb3454761bf424e868686866040516103c29493929190610a9c565b60405180910390a35050505050565b6000604051905090565b600080fd5b600080fd5b6000819050919050565b6103f8816103e5565b811461040357600080fd5b50565b600081359050610415816103ef565b92915050565b600060208284031215610431576104306103db565b5b600061043f84828501610406565b91505092915050565b610451816103e5565b82525050565b600073ffffffffffffffffffffffffffffffffffffffff82169050919050565b600061048282610457565b9050919050565b61049281610477565b82525050565b600081519050919050565b600082825260208201905092915050565b60005b838110156104d25780820151818401526020810190506104b7565b60008484015250505050565b6000601f19601f8301169050919050565b60006104fa82610498565b61050481856104a3565b93506105148185602086016104b4565b61051d816104de565b840191505092915050565b600060c08201905061053d6000830189610448565b61054a6020830188610489565b818103604083015261055c81876104ef565b9050818103606083015261057081866104ef565b9050818103608083015261058481856104ef565b905061059360a0830184610448565b979650505050505050565b600080fd5b600080fd5b7f4e487b7100000000000000000000000000000000000000000000000000000000600052604160045260246000fd5b6105e0826104de565b810181811067ffffffffffffffff821117156105ff576105fe6105a8565b5b80604052505050565b60006106126103d1565b905061061e82826105d7565b919050565b600067ffffffffffffffff82111561063e5761063d6105a8565b5b610647826104de565b9050602081019050919050565b82818337600083830152505050565b600061067661067184610623565b610608565b905082815260208101848484011115610692576106916105a3565b5b61069d848285610654565b509392505050565b600082601f8301126106ba576106b961059e565b5b81356106ca848260208601610663565b91505092915050565b600080600080600060a086880312156106ef576106ee6103db565b5b60006106fd88828901610406565b955050602086013567ffffffffffffffff81111561071e5761071d6103e0565b5b61072a888289016106a5565b945050604086013567ffffffffffffffff81111561074b5761074a6103e0565b5b610757888289016106a5565b935050606086013567ffffffffffffffff811115610778576107776103e0565b5b610784888289016106a5565b925050608086013567ffffffffffffffff8111156107a5576107a46103e0565b5b6107b1888289016106a5565b9150509295509295909350565b7f4e487b7100000000000000000000000000000000000000000000000000000000600052602260045260246000fd5b6000600282049050600182168061080557607f821691505b602082108103610818576108176107be565b5b50919050565b60008190508160005260206000209050919050565b60006020601f8301049050919050565b600082821b905092915050565b6000600883026108807fffffffffffffffffffffffffffffffffffffffffffffffffffffffffffffffff82610843565b61088a8683610843565b95508019841693508086168417925050509392505050565b6000819050919050565b60006108c76108c26108bd846103e5565b6108a2565b6103e5565b9050919050565b6000819050919050565b6108e1836108ac565b6108f56108ed826108ce565b848454610850565b825550505050565b600090565b61090a6108fd565b6109158184846108d8565b505050565b5b818110156109395761092e600082610902565b60018101905061091b565b5050565b601f82111561097e5761094f8161081e565b61095884610833565b81016020851015610967578190505b61097b61097385610833565b83018261091a565b50505b505050565b600082821c905092915050565b60006109a160001984600802610983565b1980831691505092915050565b60006109ba8383610990565b9150826002028217905092915050565b6109d382610498565b67ffffffffffffffff8111156109ec576109eb6105a8565b5b6109f682546107ed565b610a0182828561093d565b600060209050601f831160018114610a345760008415610a22578287015190505b610a2c85826109ae565b865550610a94565b601f198416610a428661081e565b60005b82811015610a6a57848901518255600182019150602085019450602081019050610a45565b86831015610a875784890151610a83601f891682610990565b8355505b6001600288020188555050505b505050505050565b60006080820190508181036000830152610ab681876104ef565b90508181036020830152610aca81866104ef565b90508181036040830152610ade81856104ef565b90508181036060830152610af281846104ef565b90509594505050505056fea264697066735822122025d54a060e0887730c337e920387c5492994363b6c4b28429efc469e9612c10764736f6c63430008140033",
  "linkReferences": {},
  "deployedLinkReferences": {}
}